{
  "contractName": "RefundableWallet",
  "abi": [
    {
      "constant": true,
      "inputs": [],
      "name": "initialTotalSupply",
      "outputs": [
        {
          "name": "",
          "type": "uint256"
        }
      ],
      "payable": false,
      "stateMutability": "view",
      "type": "function"
    },
    {
      "constant": true,
      "inputs": [],
      "name": "tokenRate",
      "outputs": [
        {
          "name": "",
          "type": "uint256"
        }
      ],
      "payable": false,
      "stateMutability": "view",
      "type": "function"
    },
    {
      "constant": false,
      "inputs": [],
      "name": "renounceOwnership",
      "outputs": [],
      "payable": false,
      "stateMutability": "nonpayable",
      "type": "function"
    },
    {
      "constant": true,
      "inputs": [],
      "name": "owner",
      "outputs": [
        {
          "name": "",
          "type": "address"
        }
      ],
      "payable": false,
      "stateMutability": "view",
      "type": "function"
    },
    {
      "constant": true,
      "inputs": [],
      "name": "dispersalLength",
      "outputs": [
        {
          "name": "",
          "type": "uint256"
        }
      ],
      "payable": false,
      "stateMutability": "view",
      "type": "function"
    },
    {
      "constant": true,
      "inputs": [],
      "name": "deposit",
      "outputs": [
        {
          "name": "",
          "type": "uint256"
        }
      ],
      "payable": false,
      "stateMutability": "view",
      "type": "function"
    },
    {
      "constant": true,
      "inputs": [],
      "name": "startingBlock",
      "outputs": [
        {
          "name": "",
          "type": "uint256"
        }
      ],
      "payable": false,
      "stateMutability": "view",
      "type": "function"
    },
    {
      "constant": true,
      "inputs": [],
      "name": "dispersal",
      "outputs": [
        {
          "name": "",
          "type": "uint256"
        }
      ],
      "payable": false,
      "stateMutability": "view",
      "type": "function"
    },
    {
      "constant": false,
      "inputs": [
        {
          "name": "_newOwner",
          "type": "address"
        }
      ],
      "name": "transferOwnership",
      "outputs": [],
      "payable": false,
      "stateMutability": "nonpayable",
      "type": "function"
    },
    {
      "constant": true,
      "inputs": [],
      "name": "token",
      "outputs": [
        {
          "name": "",
          "type": "address"
        }
      ],
      "payable": false,
      "stateMutability": "view",
      "type": "function"
    },
    {
      "inputs": [
        {
          "name": "_token",
          "type": "address"
        },
        {
          "name": "_dispersalLength",
          "type": "uint256"
        }
      ],
      "payable": true,
      "stateMutability": "payable",
      "type": "constructor"
    },
    {
      "anonymous": false,
      "inputs": [
        {
          "indexed": false,
          "name": "numerator",
          "type": "uint256"
        },
        {
          "indexed": false,
          "name": "denominator",
          "type": "uint256"
        }
      ],
      "name": "Log",
      "type": "event"
    },
    {
      "anonymous": false,
      "inputs": [
        {
          "indexed": true,
          "name": "previousOwner",
          "type": "address"
        }
      ],
      "name": "OwnershipRenounced",
      "type": "event"
    },
    {
      "anonymous": false,
      "inputs": [
        {
          "indexed": true,
          "name": "previousOwner",
          "type": "address"
        },
        {
          "indexed": true,
          "name": "newOwner",
          "type": "address"
        }
      ],
      "name": "OwnershipTransferred",
      "type": "event"
    },
    {
      "constant": false,
      "inputs": [],
      "name": "buy",
      "outputs": [],
      "payable": true,
      "stateMutability": "payable",
      "type": "function"
    },
    {
      "constant": false,
      "inputs": [
        {
          "name": "_amount",
          "type": "uint256"
        }
      ],
      "name": "refund",
      "outputs": [],
      "payable": false,
      "stateMutability": "nonpayable",
      "type": "function"
    },
    {
      "constant": false,
      "inputs": [
        {
          "name": "_amount",
          "type": "uint256"
        }
      ],
      "name": "pullEther",
      "outputs": [],
      "payable": false,
      "stateMutability": "nonpayable",
      "type": "function"
    },
    {
      "constant": true,
      "inputs": [
        {
          "name": "_amount",
          "type": "uint256"
        }
      ],
      "name": "calculateRefund",
      "outputs": [
        {
          "name": "",
          "type": "uint256"
        }
      ],
      "payable": false,
      "stateMutability": "view",
      "type": "function"
    },
    {
      "constant": true,
      "inputs": [],
      "name": "getRefundableBalance",
      "outputs": [
        {
          "name": "",
          "type": "uint256"
        }
      ],
      "payable": false,
      "stateMutability": "view",
      "type": "function"
    },
    {
      "constant": true,
      "inputs": [],
      "name": "getDispersableEther",
      "outputs": [
        {
          "name": "",
          "type": "uint256"
        }
      ],
      "payable": false,
      "stateMutability": "view",
      "type": "function"
    },
    {
      "constant": true,
      "inputs": [],
      "name": "getBlockNumber",
      "outputs": [
        {
          "name": "",
          "type": "uint256"
        }
      ],
      "payable": false,
      "stateMutability": "view",
      "type": "function"
    }
  ],
  "bytecode": "0x6080604052604051604080620013108339810180604052810190808051906020019092919080519060200190929190505050336000806101000a81548173ffffffffffffffffffffffffffffffffffffffff021916908373ffffffffffffffffffffffffffffffffffffffff16021790555081600160006101000a81548173ffffffffffffffffffffffffffffffffffffffff021916908373ffffffffffffffffffffffffffffffffffffffff160217905550600160009054906101000a900473ffffffffffffffffffffffffffffffffffffffff1673ffffffffffffffffffffffffffffffffffffffff166318160ddd6040518163ffffffff167c0100000000000000000000000000000000000000000000000000000000028152600401602060405180830381600087803b1580156200013957600080fd5b505af11580156200014e573d6000803e3d6000fd5b505050506040513d60208110156200016557600080fd5b8101908080519060200190929190505050600381905550806005819055503073ffffffffffffffffffffffffffffffffffffffff1631600681905550620001ba620001ed640100000000026401000000009004565b600481905550620001df600354600654620001f5640100000000026401000000009004565b6002819055505050620002be565b600043905090565b600081620002526002848115156200020957fe5b0462000235670de0b6b3a764000087620002656401000000000262000e0e179091906401000000009004565b620002a16401000000000262000f00179091906401000000009004565b8115156200025c57fe5b04905092915050565b6000808314156200027a57600090506200029b565b81830290508183828115156200028c57fe5b041415156200029757fe5b8090505b92915050565b60008183019050828110151515620002b557fe5b80905092915050565b61104280620002ce6000396000f3006080604052600436106100f1576000357c0100000000000000000000000000000000000000000000000000000000900463ffffffff16806316e92e2e146100f6578063278ecde114610121578063311028af1461014e578063317118841461017957806342cbb15c146101a4578063715018a6146101cf5780638da5cb5b146101e6578063a6f2ae3a1461023d578063a8c6acda14610247578063c783dc9e14610288578063c9948c96146102b5578063d0e30db0146102e0578063d91c98d31461030b578063eeef479d14610336578063f2fde38b14610361578063f74b468e146103a4578063fc0c546a146103cf575b600080fd5b34801561010257600080fd5b5061010b610426565b6040518082815260200191505060405180910390f35b34801561012d57600080fd5b5061014c60048036038101908080359060200190929190505050610472565b005b34801561015a57600080fd5b50610163610609565b6040518082815260200191505060405180910390f35b34801561018557600080fd5b5061018e61060f565b6040518082815260200191505060405180910390f35b3480156101b057600080fd5b506101b9610615565b6040518082815260200191505060405180910390f35b3480156101db57600080fd5b506101e461061d565b005b3480156101f257600080fd5b506101fb61071f565b604051808273ffffffffffffffffffffffffffffffffffffffff1673ffffffffffffffffffffffffffffffffffffffff16815260200191505060405180910390f35b610245610744565b005b34801561025357600080fd5b5061027260048036038101908080359060200190929190505050610998565b6040518082815260200191505060405180910390f35b34801561029457600080fd5b506102b360048036038101908080359060200190929190505050610c1b565b005b3480156102c157600080fd5b506102ca610d05565b6040518082815260200191505060405180910390f35b3480156102ec57600080fd5b506102f5610d0b565b6040518082815260200191505060405180910390f35b34801561031757600080fd5b50610320610d11565b6040518082815260200191505060405180910390f35b34801561034257600080fd5b5061034b610d17565b6040518082815260200191505060405180910390f35b34801561036d57600080fd5b506103a2600480360381019080803573ffffffffffffffffffffffffffffffffffffffff169060200190929190505050610d1d565b005b3480156103b057600080fd5b506103b9610d84565b6040518082815260200191505060405180910390f35b3480156103db57600080fd5b506103e4610dcf565b604051808273ffffffffffffffffffffffffffffffffffffffff1673ffffffffffffffffffffffffffffffffffffffff16815260200191505060405180910390f35b600061046d610447600754610439610d84565b610df590919063ffffffff16565b3073ffffffffffffffffffffffffffffffffffffffff1631610df590919063ffffffff16565b905090565b600061047d82610998565b9050600160009054906101000a900473ffffffffffffffffffffffffffffffffffffffff1673ffffffffffffffffffffffffffffffffffffffff166323b872dd3330856040518463ffffffff167c0100000000000000000000000000000000000000000000000000000000028152600401808473ffffffffffffffffffffffffffffffffffffffff1673ffffffffffffffffffffffffffffffffffffffff1681526020018373ffffffffffffffffffffffffffffffffffffffff1673ffffffffffffffffffffffffffffffffffffffff1681526020018281526020019350505050602060405180830381600087803b15801561057857600080fd5b505af115801561058c573d6000803e3d6000fd5b505050506040513d60208110156105a257600080fd5b810190808051906020019092919050505015156105be57600080fd5b3373ffffffffffffffffffffffffffffffffffffffff166108fc829081150290604051600060405180830381858888f19350505050158015610604573d6000803e3d6000fd5b505050565b60035481565b60025481565b600043905090565b6000809054906101000a900473ffffffffffffffffffffffffffffffffffffffff1673ffffffffffffffffffffffffffffffffffffffff163373ffffffffffffffffffffffffffffffffffffffff1614151561067857600080fd5b6000809054906101000a900473ffffffffffffffffffffffffffffffffffffffff1673ffffffffffffffffffffffffffffffffffffffff167ff8df31144d9c2f0f6b59d69b8b98abd5459d07f2742c4df920b25aae33c6482060405160405180910390a260008060006101000a81548173ffffffffffffffffffffffffffffffffffffffff021916908373ffffffffffffffffffffffffffffffffffffffff160217905550565b6000809054906101000a900473ffffffffffffffffffffffffffffffffffffffff1681565b6000803411151561075457600080fd5b610783670de0b6b3a764000061077560025434610e0e90919063ffffffff16565b610e4690919063ffffffff16565b905080600160009054906101000a900473ffffffffffffffffffffffffffffffffffffffff1673ffffffffffffffffffffffffffffffffffffffff166370a08231306040518263ffffffff167c0100000000000000000000000000000000000000000000000000000000028152600401808273ffffffffffffffffffffffffffffffffffffffff1673ffffffffffffffffffffffffffffffffffffffff168152602001915050602060405180830381600087803b15801561084357600080fd5b505af1158015610857573d6000803e3d6000fd5b505050506040513d602081101561086d57600080fd5b810190808051906020019092919050505011151561088a57600080fd5b600160009054906101000a900473ffffffffffffffffffffffffffffffffffffffff1673ffffffffffffffffffffffffffffffffffffffff1663a9059cbb33836040518363ffffffff167c0100000000000000000000000000000000000000000000000000000000028152600401808373ffffffffffffffffffffffffffffffffffffffff1673ffffffffffffffffffffffffffffffffffffffff16815260200182815260200192505050602060405180830381600087803b15801561094f57600080fd5b505af1158015610963573d6000803e3d6000fd5b505050506040513d602081101561097957600080fd5b8101908080519060200190929190505050151561099557600080fd5b50565b60008060006109ae846109a9610426565b610e5c565b9150610b7a600160009054906101000a900473ffffffffffffffffffffffffffffffffffffffff1673ffffffffffffffffffffffffffffffffffffffff166370a08231306040518263ffffffff167c0100000000000000000000000000000000000000000000000000000000028152600401808273ffffffffffffffffffffffffffffffffffffffff1673ffffffffffffffffffffffffffffffffffffffff168152602001915050602060405180830381600087803b158015610a7057600080fd5b505af1158015610a84573d6000803e3d6000fd5b505050506040513d6020811015610a9a57600080fd5b8101908080519060200190929190505050600160009054906101000a900473ffffffffffffffffffffffffffffffffffffffff1673ffffffffffffffffffffffffffffffffffffffff166318160ddd6040518163ffffffff167c0100000000000000000000000000000000000000000000000000000000028152600401602060405180830381600087803b158015610b3157600080fd5b505af1158015610b45573d6000803e3d6000fd5b505050506040513d6020811015610b5b57600080fd5b8101908080519060200190929190505050610df590919063ffffffff16565b90507fbd0faddf87043dd749c1b9d4dca8a12589b8cb5e2106832111ce23f219b143678282604051808381526020018281526020019250505060405180910390a17fbd0faddf87043dd749c1b9d4dca8a12589b8cb5e2106832111ce23f219b14367610be4610426565b610bec610426565b604051808381526020018281526020019250505060405180910390a1610c128282610eb2565b92505050919050565b6000809054906101000a900473ffffffffffffffffffffffffffffffffffffffff1673ffffffffffffffffffffffffffffffffffffffff163373ffffffffffffffffffffffffffffffffffffffff16141515610c7657600080fd5b80610c93600754610c85610d84565b610df590919063ffffffff16565b10151515610ca057600080fd5b610cb581600754610f0090919063ffffffff16565b6007819055503373ffffffffffffffffffffffffffffffffffffffff166108fc829081150290604051600060405180830381858888f19350505050158015610d01573d6000803e3d6000fd5b5050565b60055481565b60065481565b60045481565b60075481565b6000809054906101000a900473ffffffffffffffffffffffffffffffffffffffff1673ffffffffffffffffffffffffffffffffffffffff163373ffffffffffffffffffffffffffffffffffffffff16141515610d7857600080fd5b610d8181610f1c565b50565b6000610dca600554610dbc610dab600454610d9d610615565b610df590919063ffffffff16565b600654610e0e90919063ffffffff16565b610e4690919063ffffffff16565b905090565b600160009054906101000a900473ffffffffffffffffffffffffffffffffffffffff1681565b6000828211151515610e0357fe5b818303905092915050565b600080831415610e215760009050610e40565b8183029050818382811515610e3257fe5b04141515610e3c57fe5b8090505b92915050565b60008183811515610e5357fe5b04905092915050565b6000670de0b6b3a7640000610ea06002670de0b6b3a7640000811515610e7e57fe5b04610e928587610e0e90919063ffffffff16565b610f0090919063ffffffff16565b811515610ea957fe5b04905092915050565b600081610eee600284811515610ec457fe5b04610ee0670de0b6b3a764000087610e0e90919063ffffffff16565b610f0090919063ffffffff16565b811515610ef757fe5b04905092915050565b60008183019050828110151515610f1357fe5b80905092915050565b600073ffffffffffffffffffffffffffffffffffffffff168173ffffffffffffffffffffffffffffffffffffffff1614151515610f5857600080fd5b8073ffffffffffffffffffffffffffffffffffffffff166000809054906101000a900473ffffffffffffffffffffffffffffffffffffffff1673ffffffffffffffffffffffffffffffffffffffff167f8be0079c531659141344cd1fd0a4f28419497f9722a3daafe3b4186f6b6457e060405160405180910390a3806000806101000a81548173ffffffffffffffffffffffffffffffffffffffff021916908373ffffffffffffffffffffffffffffffffffffffff160217905550505600a165627a7a72305820b125e0b74ae7c80647530103b2b58eac52337c52e0d9368998356ec6b348996d0029",
  "source": "pragma solidity ^0.4.23;\n\nimport 'openzeppelin-solidity/contracts/token/ERC20/ERC20.sol';\nimport 'openzeppelin-solidity/contracts/ownership/Ownable.sol';\nimport 'openzeppelin-solidity/contracts/math/SafeMath.sol';\nimport 'openzeppelin-solidity/contracts/math/Math.sol';\n\ncontract RefundableWallet is Ownable {\n  using SafeMath for uint256;\n\n  ERC20 public token;\n\n  //Number of token base units per ETH (WEI * WAD)\n  uint256 public tokenRate;\n\n  //Initial total supply of token\n  uint256 public initialTotalSupply;\n\n  //Block number of initial ETH deposit\n  uint256 public startingBlock;\n\n  //Number of blocks over which to disperse ETH\n  uint256 public dispersalLength;\n\n  //Initial amount of ETH deposited\n  uint256 public deposit;\n\n  //Disperse ETH\n  uint256 public dispersal;\n\n  //Accuracy for arithmetic (from DSMath Library)\n  uint256 constant WAD = 10 ** 18;\n\n  constructor(address _token, uint256 _dispersalLength) public payable {\n    //Token should have finished minting\n    token = ERC20(_token);\n    //Need 18 decimals for WAD multiplication / division\n    /* assert(token.decimals() == 18); */\n    initialTotalSupply = token.totalSupply();\n    dispersalLength = _dispersalLength;\n    deposit = address(this).balance;\n    startingBlock = getBlockNumber();\n    tokenRate = wdiv(initialTotalSupply, deposit);\n  }\n\n  function buy() payable public {\n    require(msg.value > 0);\n    uint256 tokenAmount = msg.value.mul(tokenRate).div(WAD);\n    require(token.balanceOf(address(this)) > tokenAmount);\n    require(token.transfer(msg.sender, tokenAmount));\n  }\n\n  function refund(uint256 _amount) public {\n    uint256 refundAmount = calculateRefund(_amount);\n    require(token.transferFrom(msg.sender, address(this), _amount));\n    msg.sender.transfer(refundAmount);\n  }\n\n  function pullEther(uint256 _amount) public onlyOwner {\n    require(getDispersableEther().sub(dispersal) >= _amount);\n    dispersal = dispersal.add(_amount);\n    msg.sender.transfer(_amount);\n  }\n\n  function calculateRefund(uint256 _amount) public view returns(uint256) {\n    uint256 numerator = wmul(_amount,getRefundableBalance());\n    uint256 denominator = token.totalSupply().sub(token.balanceOf(address(this)));\n    emit Log(numerator, denominator);\n    emit Log(getRefundableBalance(), getRefundableBalance());\n    return wdiv(numerator, denominator);\n  }\n\n  event Log(uint numerator, uint denominator);\n\n  function getRefundableBalance() public view returns(uint256) {\n    return address(this).balance.sub(getDispersableEther().sub(dispersal));\n  }\n\n  function getDispersableEther() public view returns(uint256) {\n    return deposit.mul(getBlockNumber().sub(startingBlock)).div(dispersalLength);\n  }\n\n  function wmul(uint256 _x, uint256 _y) internal pure returns(uint256) {\n    return _x.mul(_y).add(WAD / 2) / WAD;\n  }\n\n  function wdiv(uint256 _x, uint256 _y) internal pure returns(uint256) {\n    return _x.mul(WAD).add(_y / 2) / _y;\n  }\n\n  function getBlockNumber() public view returns(uint256) {\n    return block.number;\n  }\n\n}\n",
  "sourcePath": "/Users/adamdossa/Development/Ethereum/RefundableWallet/contracts/RefundableWallet.sol",
  "compiler": {
    "name": "solc",
    "version": "0.4.23+commit.124ca40d.Emscripten.clang"
  },
  "schemaVersion": "2.0.0",
  "updatedAt": "2018-06-16T21:41:44.704Z"
}