{
  "contractName": "RefundableWalletMock",
  "abi": [
    {
      "constant": true,
      "inputs": [],
      "name": "getRefundableBalance",
      "outputs": [
        {
          "name": "",
          "type": "uint256"
        }
      ],
      "payable": false,
      "stateMutability": "view",
      "type": "function"
    },
    {
      "constant": false,
      "inputs": [
        {
          "name": "_amount",
          "type": "uint256"
        }
      ],
      "name": "refund",
      "outputs": [],
      "payable": false,
      "stateMutability": "nonpayable",
      "type": "function"
    },
    {
      "constant": true,
      "inputs": [],
      "name": "initialTotalSupply",
      "outputs": [
        {
          "name": "",
          "type": "uint256"
        }
      ],
      "payable": false,
      "stateMutability": "view",
      "type": "function"
    },
    {
      "constant": true,
      "inputs": [],
      "name": "tokenRate",
      "outputs": [
        {
          "name": "",
          "type": "uint256"
        }
      ],
      "payable": false,
      "stateMutability": "view",
      "type": "function"
    },
    {
      "constant": false,
      "inputs": [],
      "name": "renounceOwnership",
      "outputs": [],
      "payable": false,
      "stateMutability": "nonpayable",
      "type": "function"
    },
    {
      "constant": true,
      "inputs": [],
      "name": "dispersableEther",
      "outputs": [
        {
          "name": "",
          "type": "uint256"
        }
      ],
      "payable": false,
      "stateMutability": "view",
      "type": "function"
    },
    {
      "constant": true,
      "inputs": [],
      "name": "owner",
      "outputs": [
        {
          "name": "",
          "type": "address"
        }
      ],
      "payable": false,
      "stateMutability": "view",
      "type": "function"
    },
    {
      "constant": false,
      "inputs": [],
      "name": "buy",
      "outputs": [],
      "payable": true,
      "stateMutability": "payable",
      "type": "function"
    },
    {
      "constant": true,
      "inputs": [
        {
          "name": "_amount",
          "type": "uint256"
        }
      ],
      "name": "calculateRefund",
      "outputs": [
        {
          "name": "",
          "type": "uint256"
        }
      ],
      "payable": false,
      "stateMutability": "view",
      "type": "function"
    },
    {
      "constant": false,
      "inputs": [
        {
          "name": "_amount",
          "type": "uint256"
        }
      ],
      "name": "pullEther",
      "outputs": [],
      "payable": false,
      "stateMutability": "nonpayable",
      "type": "function"
    },
    {
      "constant": true,
      "inputs": [],
      "name": "dispersalLength",
      "outputs": [
        {
          "name": "",
          "type": "uint256"
        }
      ],
      "payable": false,
      "stateMutability": "view",
      "type": "function"
    },
    {
      "constant": true,
      "inputs": [],
      "name": "deposit",
      "outputs": [
        {
          "name": "",
          "type": "uint256"
        }
      ],
      "payable": false,
      "stateMutability": "view",
      "type": "function"
    },
    {
      "constant": true,
      "inputs": [],
      "name": "startingBlock",
      "outputs": [
        {
          "name": "",
          "type": "uint256"
        }
      ],
      "payable": false,
      "stateMutability": "view",
      "type": "function"
    },
    {
      "constant": true,
      "inputs": [],
      "name": "dispersal",
      "outputs": [
        {
          "name": "",
          "type": "uint256"
        }
      ],
      "payable": false,
      "stateMutability": "view",
      "type": "function"
    },
    {
      "constant": false,
      "inputs": [
        {
          "name": "_newOwner",
          "type": "address"
        }
      ],
      "name": "transferOwnership",
      "outputs": [],
      "payable": false,
      "stateMutability": "nonpayable",
      "type": "function"
    },
    {
      "constant": true,
      "inputs": [],
      "name": "token",
      "outputs": [
        {
          "name": "",
          "type": "address"
        }
      ],
      "payable": false,
      "stateMutability": "view",
      "type": "function"
    },
    {
      "inputs": [
        {
          "name": "_token",
          "type": "address"
        },
        {
          "name": "_dispersalLength",
          "type": "uint256"
        }
      ],
      "payable": true,
      "stateMutability": "payable",
      "type": "constructor"
    },
    {
      "anonymous": false,
      "inputs": [
        {
          "indexed": true,
          "name": "previousOwner",
          "type": "address"
        }
      ],
      "name": "OwnershipRenounced",
      "type": "event"
    },
    {
      "anonymous": false,
      "inputs": [
        {
          "indexed": true,
          "name": "previousOwner",
          "type": "address"
        },
        {
          "indexed": true,
          "name": "newOwner",
          "type": "address"
        }
      ],
      "name": "OwnershipTransferred",
      "type": "event"
    },
    {
      "constant": true,
      "inputs": [],
      "name": "getBlockNumber",
      "outputs": [
        {
          "name": "",
          "type": "uint256"
        }
      ],
      "payable": false,
      "stateMutability": "view",
      "type": "function"
    },
    {
      "constant": false,
      "inputs": [
        {
          "name": "_blockNumber",
          "type": "uint256"
        }
      ],
      "name": "setBlockNumber",
      "outputs": [],
      "payable": false,
      "stateMutability": "nonpayable",
      "type": "function"
    }
  ],
  "bytecode": "0x60806040526040516040806200129883398101806040528101908080519060200190929190805190602001909291905050508181336000806101000a81548173ffffffffffffffffffffffffffffffffffffffff021916908373ffffffffffffffffffffffffffffffffffffffff16021790555081600160006101000a81548173ffffffffffffffffffffffffffffffffffffffff021916908373ffffffffffffffffffffffffffffffffffffffff160217905550600160009054906101000a900473ffffffffffffffffffffffffffffffffffffffff1673ffffffffffffffffffffffffffffffffffffffff166318160ddd6040518163ffffffff167c0100000000000000000000000000000000000000000000000000000000028152600401602060405180830381600087803b1580156200013b57600080fd5b505af115801562000150573d6000803e3d6000fd5b505050506040513d60208110156200016757600080fd5b8101908080519060200190929190505050600381905550806005819055503073ffffffffffffffffffffffffffffffffffffffff1631600681905550620001bc620001f1640100000000026401000000009004565b600481905550620001e1600354600654620001fb640100000000026401000000009004565b60028190555050505050620002c4565b6000600854905090565b600081620002586002848115156200020f57fe5b046200023b670de0b6b3a7640000876200026b6401000000000262000e34179091906401000000009004565b620002a76401000000000262000e82179091906401000000009004565b8115156200026257fe5b04905092915050565b600080831415620002805760009050620002a1565b81830290508183828115156200029257fe5b041415156200029d57fe5b8090505b92915050565b60008183019050828110151515620002bb57fe5b80905092915050565b610fc480620002d46000396000f3006080604052600436106100fc576000357c0100000000000000000000000000000000000000000000000000000000900463ffffffff16806316e92e2e14610101578063278ecde11461012c578063311028af14610159578063317118841461018457806342cbb15c146101af578063715018a6146101da57806372e68135146101f15780638da5cb5b1461021c578063a6f2ae3a14610273578063a8c3c8501461027d578063a8c6acda146102aa578063c783dc9e146102eb578063c9948c9614610318578063d0e30db014610343578063d91c98d31461036e578063eeef479d14610399578063f2fde38b146103c4578063fc0c546a14610407575b600080fd5b34801561010d57600080fd5b5061011661045e565b6040518082815260200191505060405180910390f35b34801561013857600080fd5b5061015760048036038101908080359060200190929190505050610496565b005b34801561016557600080fd5b5061016e61062d565b6040518082815260200191505060405180910390f35b34801561019057600080fd5b50610199610633565b6040518082815260200191505060405180910390f35b3480156101bb57600080fd5b506101c4610639565b6040518082815260200191505060405180910390f35b3480156101e657600080fd5b506101ef610643565b005b3480156101fd57600080fd5b50610206610745565b6040518082815260200191505060405180910390f35b34801561022857600080fd5b506102316107a1565b604051808273ffffffffffffffffffffffffffffffffffffffff1673ffffffffffffffffffffffffffffffffffffffff16815260200191505060405180910390f35b61027b6107c6565b005b34801561028957600080fd5b506102a860048036038101908080359060200190929190505050610a1a565b005b3480156102b657600080fd5b506102d560048036038101908080359060200190929190505050610a24565b6040518082815260200191505060405180910390f35b3480156102f757600080fd5b5061031660048036038101908080359060200190929190505050610c3e565b005b34801561032457600080fd5b5061032d610d28565b6040518082815260200191505060405180910390f35b34801561034f57600080fd5b50610358610d2e565b6040518082815260200191505060405180910390f35b34801561037a57600080fd5b50610383610d34565b6040518082815260200191505060405180910390f35b3480156103a557600080fd5b506103ae610d3a565b6040518082815260200191505060405180910390f35b3480156103d057600080fd5b50610405600480360381019080803573ffffffffffffffffffffffffffffffffffffffff169060200190929190505050610d40565b005b34801561041357600080fd5b5061041c610da7565b604051808273ffffffffffffffffffffffffffffffffffffffff1673ffffffffffffffffffffffffffffffffffffffff16815260200191505060405180910390f35b600061049161046b610745565b3073ffffffffffffffffffffffffffffffffffffffff1631610dcd90919063ffffffff16565b905090565b60006104a182610a24565b9050600160009054906101000a900473ffffffffffffffffffffffffffffffffffffffff1673ffffffffffffffffffffffffffffffffffffffff166323b872dd3330856040518463ffffffff167c0100000000000000000000000000000000000000000000000000000000028152600401808473ffffffffffffffffffffffffffffffffffffffff1673ffffffffffffffffffffffffffffffffffffffff1681526020018373ffffffffffffffffffffffffffffffffffffffff1673ffffffffffffffffffffffffffffffffffffffff1681526020018281526020019350505050602060405180830381600087803b15801561059c57600080fd5b505af11580156105b0573d6000803e3d6000fd5b505050506040513d60208110156105c657600080fd5b810190808051906020019092919050505015156105e257600080fd5b3373ffffffffffffffffffffffffffffffffffffffff166108fc829081150290604051600060405180830381858888f19350505050158015610628573d6000803e3d6000fd5b505050565b60035481565b60025481565b6000600854905090565b6000809054906101000a900473ffffffffffffffffffffffffffffffffffffffff1673ffffffffffffffffffffffffffffffffffffffff163373ffffffffffffffffffffffffffffffffffffffff1614151561069e57600080fd5b6000809054906101000a900473ffffffffffffffffffffffffffffffffffffffff1673ffffffffffffffffffffffffffffffffffffffff167ff8df31144d9c2f0f6b59d69b8b98abd5459d07f2742c4df920b25aae33c6482060405160405180910390a260008060006101000a81548173ffffffffffffffffffffffffffffffffffffffff021916908373ffffffffffffffffffffffffffffffffffffffff160217905550565b600061079c670de0b6b3a764000061078e61077d610775600454610767610639565b610dcd90919063ffffffff16565b600554610de6565b600654610e3490919063ffffffff16565b610e6c90919063ffffffff16565b905090565b6000809054906101000a900473ffffffffffffffffffffffffffffffffffffffff1681565b600080341115156107d657600080fd5b610805670de0b6b3a76400006107f760025434610e3490919063ffffffff16565b610e6c90919063ffffffff16565b905080600160009054906101000a900473ffffffffffffffffffffffffffffffffffffffff1673ffffffffffffffffffffffffffffffffffffffff166370a08231306040518263ffffffff167c0100000000000000000000000000000000000000000000000000000000028152600401808273ffffffffffffffffffffffffffffffffffffffff1673ffffffffffffffffffffffffffffffffffffffff168152602001915050602060405180830381600087803b1580156108c557600080fd5b505af11580156108d9573d6000803e3d6000fd5b505050506040513d60208110156108ef57600080fd5b810190808051906020019092919050505011151561090c57600080fd5b600160009054906101000a900473ffffffffffffffffffffffffffffffffffffffff1673ffffffffffffffffffffffffffffffffffffffff1663a9059cbb33836040518363ffffffff167c0100000000000000000000000000000000000000000000000000000000028152600401808373ffffffffffffffffffffffffffffffffffffffff1673ffffffffffffffffffffffffffffffffffffffff16815260200182815260200192505050602060405180830381600087803b1580156109d157600080fd5b505af11580156109e5573d6000803e3d6000fd5b505050506040513d60208110156109fb57600080fd5b81019080805190602001909291905050501515610a1757600080fd5b50565b8060088190555050565b6000806000610a43610a3461045e565b85610e3490919063ffffffff16565b9150610c0f600160009054906101000a900473ffffffffffffffffffffffffffffffffffffffff1673ffffffffffffffffffffffffffffffffffffffff166370a08231306040518263ffffffff167c0100000000000000000000000000000000000000000000000000000000028152600401808273ffffffffffffffffffffffffffffffffffffffff1673ffffffffffffffffffffffffffffffffffffffff168152602001915050602060405180830381600087803b158015610b0557600080fd5b505af1158015610b19573d6000803e3d6000fd5b505050506040513d6020811015610b2f57600080fd5b8101908080519060200190929190505050600160009054906101000a900473ffffffffffffffffffffffffffffffffffffffff1673ffffffffffffffffffffffffffffffffffffffff166318160ddd6040518163ffffffff167c0100000000000000000000000000000000000000000000000000000000028152600401602060405180830381600087803b158015610bc657600080fd5b505af1158015610bda573d6000803e3d6000fd5b505050506040513d6020811015610bf057600080fd5b8101908080519060200190929190505050610dcd90919063ffffffff16565b9050610c35670de0b6b3a7640000610c278484610de6565b610e6c90919063ffffffff16565b92505050919050565b6000809054906101000a900473ffffffffffffffffffffffffffffffffffffffff1673ffffffffffffffffffffffffffffffffffffffff163373ffffffffffffffffffffffffffffffffffffffff16141515610c9957600080fd5b80610cb6600754610ca8610745565b610dcd90919063ffffffff16565b10151515610cc357600080fd5b610cd881600754610e8290919063ffffffff16565b6007819055503373ffffffffffffffffffffffffffffffffffffffff166108fc829081150290604051600060405180830381858888f19350505050158015610d24573d6000803e3d6000fd5b5050565b60055481565b60065481565b60045481565b60075481565b6000809054906101000a900473ffffffffffffffffffffffffffffffffffffffff1673ffffffffffffffffffffffffffffffffffffffff163373ffffffffffffffffffffffffffffffffffffffff16141515610d9b57600080fd5b610da481610e9e565b50565b600160009054906101000a900473ffffffffffffffffffffffffffffffffffffffff1681565b6000828211151515610ddb57fe5b818303905092915050565b600081610e22600284811515610df857fe5b04610e14670de0b6b3a764000087610e3490919063ffffffff16565b610e8290919063ffffffff16565b811515610e2b57fe5b04905092915050565b600080831415610e475760009050610e66565b8183029050818382811515610e5857fe5b04141515610e6257fe5b8090505b92915050565b60008183811515610e7957fe5b04905092915050565b60008183019050828110151515610e9557fe5b80905092915050565b600073ffffffffffffffffffffffffffffffffffffffff168173ffffffffffffffffffffffffffffffffffffffff1614151515610eda57600080fd5b8073ffffffffffffffffffffffffffffffffffffffff166000809054906101000a900473ffffffffffffffffffffffffffffffffffffffff1673ffffffffffffffffffffffffffffffffffffffff167f8be0079c531659141344cd1fd0a4f28419497f9722a3daafe3b4186f6b6457e060405160405180910390a3806000806101000a81548173ffffffffffffffffffffffffffffffffffffffff021916908373ffffffffffffffffffffffffffffffffffffffff160217905550505600a165627a7a72305820be5c74cc010606eb3c6a916ba1b7477dd4d63c9cebf8311add5574d39f19038c0029",
  "source": "pragma solidity ^0.4.23;\n\nimport '../RefundableWallet.sol';\n\ncontract RefundableWalletMock is RefundableWallet {\n\n  uint256 blockNumber;\n\n  constructor(address _token, uint256 _dispersalLength) public payable\n    RefundableWallet(_token, _dispersalLength)\n  {\n  }\n\n  function getBlockNumber() public view returns(uint256) {\n    return blockNumber;\n  }\n\n  function setBlockNumber(uint256 _blockNumber) public {\n    blockNumber = _blockNumber;\n  }\n\n}\n",
  "sourcePath": "/Users/adamdossa/Development/Ethereum/RefundableWallet/contracts/Mock/RefundableWalletMock.sol",
  "compiler": {
    "name": "solc",
    "version": "0.4.23+commit.124ca40d.Emscripten.clang"
  },
  "schemaVersion": "2.0.0",
  "updatedAt": "2018-06-15T22:26:34.144Z"
}