{
  "contractName": "RefundableWallet",
  "abi": [
    {
      "constant": true,
      "inputs": [],
      "name": "initialTotalSupply",
      "outputs": [
        {
          "name": "",
          "type": "uint256"
        }
      ],
      "payable": false,
      "stateMutability": "view",
      "type": "function"
    },
    {
      "constant": true,
      "inputs": [],
      "name": "tokenRate",
      "outputs": [
        {
          "name": "",
          "type": "uint256"
        }
      ],
      "payable": false,
      "stateMutability": "view",
      "type": "function"
    },
    {
      "constant": false,
      "inputs": [],
      "name": "renounceOwnership",
      "outputs": [],
      "payable": false,
      "stateMutability": "nonpayable",
      "type": "function"
    },
    {
      "constant": true,
      "inputs": [],
      "name": "owner",
      "outputs": [
        {
          "name": "",
          "type": "address"
        }
      ],
      "payable": false,
      "stateMutability": "view",
      "type": "function"
    },
    {
      "constant": true,
      "inputs": [],
      "name": "dispersalLength",
      "outputs": [
        {
          "name": "",
          "type": "uint256"
        }
      ],
      "payable": false,
      "stateMutability": "view",
      "type": "function"
    },
    {
      "constant": true,
      "inputs": [],
      "name": "deposit",
      "outputs": [
        {
          "name": "",
          "type": "uint256"
        }
      ],
      "payable": false,
      "stateMutability": "view",
      "type": "function"
    },
    {
      "constant": true,
      "inputs": [],
      "name": "startingBlock",
      "outputs": [
        {
          "name": "",
          "type": "uint256"
        }
      ],
      "payable": false,
      "stateMutability": "view",
      "type": "function"
    },
    {
      "constant": true,
      "inputs": [],
      "name": "dispersal",
      "outputs": [
        {
          "name": "",
          "type": "uint256"
        }
      ],
      "payable": false,
      "stateMutability": "view",
      "type": "function"
    },
    {
      "constant": false,
      "inputs": [
        {
          "name": "_newOwner",
          "type": "address"
        }
      ],
      "name": "transferOwnership",
      "outputs": [],
      "payable": false,
      "stateMutability": "nonpayable",
      "type": "function"
    },
    {
      "constant": true,
      "inputs": [],
      "name": "token",
      "outputs": [
        {
          "name": "",
          "type": "address"
        }
      ],
      "payable": false,
      "stateMutability": "view",
      "type": "function"
    },
    {
      "inputs": [
        {
          "name": "_token",
          "type": "address"
        },
        {
          "name": "_dispersalLength",
          "type": "uint256"
        }
      ],
      "payable": true,
      "stateMutability": "payable",
      "type": "constructor"
    },
    {
      "anonymous": false,
      "inputs": [
        {
          "indexed": true,
          "name": "previousOwner",
          "type": "address"
        }
      ],
      "name": "OwnershipRenounced",
      "type": "event"
    },
    {
      "anonymous": false,
      "inputs": [
        {
          "indexed": true,
          "name": "previousOwner",
          "type": "address"
        },
        {
          "indexed": true,
          "name": "newOwner",
          "type": "address"
        }
      ],
      "name": "OwnershipTransferred",
      "type": "event"
    },
    {
      "constant": false,
      "inputs": [],
      "name": "buy",
      "outputs": [],
      "payable": true,
      "stateMutability": "payable",
      "type": "function"
    },
    {
      "constant": false,
      "inputs": [
        {
          "name": "_amount",
          "type": "uint256"
        }
      ],
      "name": "refund",
      "outputs": [],
      "payable": false,
      "stateMutability": "nonpayable",
      "type": "function"
    },
    {
      "constant": true,
      "inputs": [],
      "name": "dispersableEther",
      "outputs": [
        {
          "name": "",
          "type": "uint256"
        }
      ],
      "payable": false,
      "stateMutability": "view",
      "type": "function"
    },
    {
      "constant": true,
      "inputs": [
        {
          "name": "_amount",
          "type": "uint256"
        }
      ],
      "name": "calculateRefund",
      "outputs": [
        {
          "name": "",
          "type": "uint256"
        }
      ],
      "payable": false,
      "stateMutability": "view",
      "type": "function"
    },
    {
      "constant": true,
      "inputs": [],
      "name": "getRefundableBalance",
      "outputs": [
        {
          "name": "",
          "type": "uint256"
        }
      ],
      "payable": false,
      "stateMutability": "view",
      "type": "function"
    },
    {
      "constant": false,
      "inputs": [
        {
          "name": "_amount",
          "type": "uint256"
        }
      ],
      "name": "pullEther",
      "outputs": [],
      "payable": false,
      "stateMutability": "nonpayable",
      "type": "function"
    },
    {
      "constant": true,
      "inputs": [],
      "name": "getBlockNumber",
      "outputs": [
        {
          "name": "",
          "type": "uint256"
        }
      ],
      "payable": false,
      "stateMutability": "view",
      "type": "function"
    }
  ],
  "bytecode": "0x60806040526040516040806200124e8339810180604052810190808051906020019092919080519060200190929190505050336000806101000a81548173ffffffffffffffffffffffffffffffffffffffff021916908373ffffffffffffffffffffffffffffffffffffffff16021790555081600160006101000a81548173ffffffffffffffffffffffffffffffffffffffff021916908373ffffffffffffffffffffffffffffffffffffffff160217905550600160009054906101000a900473ffffffffffffffffffffffffffffffffffffffff1673ffffffffffffffffffffffffffffffffffffffff166318160ddd6040518163ffffffff167c0100000000000000000000000000000000000000000000000000000000028152600401602060405180830381600087803b1580156200013957600080fd5b505af11580156200014e573d6000803e3d6000fd5b505050506040513d60208110156200016557600080fd5b8101908080519060200190929190505050600381905550806005819055503073ffffffffffffffffffffffffffffffffffffffff1631600681905550620001ba620001ed640100000000026401000000009004565b600481905550620001df600354600654620001f5640100000000026401000000009004565b6002819055505050620002be565b600043905090565b600081620002526002848115156200020957fe5b0462000235670de0b6b3a764000087620002656401000000000262000df0179091906401000000009004565b620002a16401000000000262000e3e179091906401000000009004565b8115156200025c57fe5b04905092915050565b6000808314156200027a57600090506200029b565b81830290508183828115156200028c57fe5b041415156200029757fe5b8090505b92915050565b60008183019050828110151515620002b557fe5b80905092915050565b610f8080620002ce6000396000f3006080604052600436106100f1576000357c0100000000000000000000000000000000000000000000000000000000900463ffffffff16806316e92e2e146100f6578063278ecde114610121578063311028af1461014e578063317118841461017957806342cbb15c146101a4578063715018a6146101cf57806372e68135146101e65780638da5cb5b14610211578063a6f2ae3a14610268578063a8c6acda14610272578063c783dc9e146102b3578063c9948c96146102e0578063d0e30db01461030b578063d91c98d314610336578063eeef479d14610361578063f2fde38b1461038c578063fc0c546a146103cf575b600080fd5b34801561010257600080fd5b5061010b610426565b6040518082815260200191505060405180910390f35b34801561012d57600080fd5b5061014c6004803603810190808035906020019092919050505061045e565b005b34801561015a57600080fd5b506101636105f5565b6040518082815260200191505060405180910390f35b34801561018557600080fd5b5061018e6105fb565b6040518082815260200191505060405180910390f35b3480156101b057600080fd5b506101b9610601565b6040518082815260200191505060405180910390f35b3480156101db57600080fd5b506101e4610609565b005b3480156101f257600080fd5b506101fb61070b565b6040518082815260200191505060405180910390f35b34801561021d57600080fd5b50610226610767565b604051808273ffffffffffffffffffffffffffffffffffffffff1673ffffffffffffffffffffffffffffffffffffffff16815260200191505060405180910390f35b61027061078c565b005b34801561027e57600080fd5b5061029d600480360381019080803590602001909291905050506109e0565b6040518082815260200191505060405180910390f35b3480156102bf57600080fd5b506102de60048036038101908080359060200190929190505050610bfa565b005b3480156102ec57600080fd5b506102f5610ce4565b6040518082815260200191505060405180910390f35b34801561031757600080fd5b50610320610cea565b6040518082815260200191505060405180910390f35b34801561034257600080fd5b5061034b610cf0565b6040518082815260200191505060405180910390f35b34801561036d57600080fd5b50610376610cf6565b6040518082815260200191505060405180910390f35b34801561039857600080fd5b506103cd600480360381019080803573ffffffffffffffffffffffffffffffffffffffff169060200190929190505050610cfc565b005b3480156103db57600080fd5b506103e4610d63565b604051808273ffffffffffffffffffffffffffffffffffffffff1673ffffffffffffffffffffffffffffffffffffffff16815260200191505060405180910390f35b600061045961043361070b565b3073ffffffffffffffffffffffffffffffffffffffff1631610d8990919063ffffffff16565b905090565b6000610469826109e0565b9050600160009054906101000a900473ffffffffffffffffffffffffffffffffffffffff1673ffffffffffffffffffffffffffffffffffffffff166323b872dd3330856040518463ffffffff167c0100000000000000000000000000000000000000000000000000000000028152600401808473ffffffffffffffffffffffffffffffffffffffff1673ffffffffffffffffffffffffffffffffffffffff1681526020018373ffffffffffffffffffffffffffffffffffffffff1673ffffffffffffffffffffffffffffffffffffffff1681526020018281526020019350505050602060405180830381600087803b15801561056457600080fd5b505af1158015610578573d6000803e3d6000fd5b505050506040513d602081101561058e57600080fd5b810190808051906020019092919050505015156105aa57600080fd5b3373ffffffffffffffffffffffffffffffffffffffff166108fc829081150290604051600060405180830381858888f193505050501580156105f0573d6000803e3d6000fd5b505050565b60035481565b60025481565b600043905090565b6000809054906101000a900473ffffffffffffffffffffffffffffffffffffffff1673ffffffffffffffffffffffffffffffffffffffff163373ffffffffffffffffffffffffffffffffffffffff1614151561066457600080fd5b6000809054906101000a900473ffffffffffffffffffffffffffffffffffffffff1673ffffffffffffffffffffffffffffffffffffffff167ff8df31144d9c2f0f6b59d69b8b98abd5459d07f2742c4df920b25aae33c6482060405160405180910390a260008060006101000a81548173ffffffffffffffffffffffffffffffffffffffff021916908373ffffffffffffffffffffffffffffffffffffffff160217905550565b6000610762670de0b6b3a764000061075461074361073b60045461072d610601565b610d8990919063ffffffff16565b600554610da2565b600654610df090919063ffffffff16565b610e2890919063ffffffff16565b905090565b6000809054906101000a900473ffffffffffffffffffffffffffffffffffffffff1681565b6000803411151561079c57600080fd5b6107cb670de0b6b3a76400006107bd60025434610df090919063ffffffff16565b610e2890919063ffffffff16565b905080600160009054906101000a900473ffffffffffffffffffffffffffffffffffffffff1673ffffffffffffffffffffffffffffffffffffffff166370a08231306040518263ffffffff167c0100000000000000000000000000000000000000000000000000000000028152600401808273ffffffffffffffffffffffffffffffffffffffff1673ffffffffffffffffffffffffffffffffffffffff168152602001915050602060405180830381600087803b15801561088b57600080fd5b505af115801561089f573d6000803e3d6000fd5b505050506040513d60208110156108b557600080fd5b81019080805190602001909291905050501115156108d257600080fd5b600160009054906101000a900473ffffffffffffffffffffffffffffffffffffffff1673ffffffffffffffffffffffffffffffffffffffff1663a9059cbb33836040518363ffffffff167c0100000000000000000000000000000000000000000000000000000000028152600401808373ffffffffffffffffffffffffffffffffffffffff1673ffffffffffffffffffffffffffffffffffffffff16815260200182815260200192505050602060405180830381600087803b15801561099757600080fd5b505af11580156109ab573d6000803e3d6000fd5b505050506040513d60208110156109c157600080fd5b810190808051906020019092919050505015156109dd57600080fd5b50565b60008060006109ff6109f0610426565b85610df090919063ffffffff16565b9150610bcb600160009054906101000a900473ffffffffffffffffffffffffffffffffffffffff1673ffffffffffffffffffffffffffffffffffffffff166370a08231306040518263ffffffff167c0100000000000000000000000000000000000000000000000000000000028152600401808273ffffffffffffffffffffffffffffffffffffffff1673ffffffffffffffffffffffffffffffffffffffff168152602001915050602060405180830381600087803b158015610ac157600080fd5b505af1158015610ad5573d6000803e3d6000fd5b505050506040513d6020811015610aeb57600080fd5b8101908080519060200190929190505050600160009054906101000a900473ffffffffffffffffffffffffffffffffffffffff1673ffffffffffffffffffffffffffffffffffffffff166318160ddd6040518163ffffffff167c0100000000000000000000000000000000000000000000000000000000028152600401602060405180830381600087803b158015610b8257600080fd5b505af1158015610b96573d6000803e3d6000fd5b505050506040513d6020811015610bac57600080fd5b8101908080519060200190929190505050610d8990919063ffffffff16565b9050610bf1670de0b6b3a7640000610be38484610da2565b610e2890919063ffffffff16565b92505050919050565b6000809054906101000a900473ffffffffffffffffffffffffffffffffffffffff1673ffffffffffffffffffffffffffffffffffffffff163373ffffffffffffffffffffffffffffffffffffffff16141515610c5557600080fd5b80610c72600754610c6461070b565b610d8990919063ffffffff16565b10151515610c7f57600080fd5b610c9481600754610e3e90919063ffffffff16565b6007819055503373ffffffffffffffffffffffffffffffffffffffff166108fc829081150290604051600060405180830381858888f19350505050158015610ce0573d6000803e3d6000fd5b5050565b60055481565b60065481565b60045481565b60075481565b6000809054906101000a900473ffffffffffffffffffffffffffffffffffffffff1673ffffffffffffffffffffffffffffffffffffffff163373ffffffffffffffffffffffffffffffffffffffff16141515610d5757600080fd5b610d6081610e5a565b50565b600160009054906101000a900473ffffffffffffffffffffffffffffffffffffffff1681565b6000828211151515610d9757fe5b818303905092915050565b600081610dde600284811515610db457fe5b04610dd0670de0b6b3a764000087610df090919063ffffffff16565b610e3e90919063ffffffff16565b811515610de757fe5b04905092915050565b600080831415610e035760009050610e22565b8183029050818382811515610e1457fe5b04141515610e1e57fe5b8090505b92915050565b60008183811515610e3557fe5b04905092915050565b60008183019050828110151515610e5157fe5b80905092915050565b600073ffffffffffffffffffffffffffffffffffffffff168173ffffffffffffffffffffffffffffffffffffffff1614151515610e9657600080fd5b8073ffffffffffffffffffffffffffffffffffffffff166000809054906101000a900473ffffffffffffffffffffffffffffffffffffffff1673ffffffffffffffffffffffffffffffffffffffff167f8be0079c531659141344cd1fd0a4f28419497f9722a3daafe3b4186f6b6457e060405160405180910390a3806000806101000a81548173ffffffffffffffffffffffffffffffffffffffff021916908373ffffffffffffffffffffffffffffffffffffffff160217905550505600a165627a7a7230582091216338626d4222e20ee8eb65bd14e3fd777e6ea34cbf2475db96d7af6a6b4a0029",
  "source": "pragma solidity ^0.4.23;\n\nimport 'openzeppelin-solidity/contracts/token/ERC20/ERC20.sol';\nimport 'openzeppelin-solidity/contracts/ownership/Ownable.sol';\nimport 'openzeppelin-solidity/contracts/math/SafeMath.sol';\nimport 'openzeppelin-solidity/contracts/math/Math.sol';\n\ncontract RefundableWallet is Ownable {\n  using SafeMath for uint256;\n\n  ERC20 public token;\n\n  //Number of token base units per ETH (WEI * WAD)\n  uint256 public tokenRate;\n\n  //Initial total supply of token\n  uint256 public initialTotalSupply;\n\n  //Block number of initial ETH deposit\n  uint256 public startingBlock;\n\n  //Number of blocks over which to disperse ETH\n  uint256 public dispersalLength;\n\n  //Initial amount of ETH deposited\n  uint256 public deposit;\n\n  //Disperse ETH\n  uint256 public dispersal;\n\n  //Accuracy for arithmetic (from DSMath Library)\n  uint256 constant WAD = 10 ** 18;\n\n  constructor(address _token, uint256 _dispersalLength) public payable {\n    //Token should have finished minting\n    token = ERC20(_token);\n    initialTotalSupply = token.totalSupply();\n    dispersalLength = _dispersalLength;\n    deposit = address(this).balance;\n    startingBlock = getBlockNumber();\n    tokenRate = wdiv(initialTotalSupply, deposit);\n  }\n\n  function buy() payable public {\n    require(msg.value > 0);\n    uint256 tokenAmount = msg.value.mul(tokenRate).div(WAD);\n    require(token.balanceOf(address(this)) > tokenAmount);\n    require(token.transfer(msg.sender, tokenAmount));\n  }\n\n  function refund(uint256 _amount) public {\n    uint256 refundAmount = calculateRefund(_amount);\n    require(token.transferFrom(msg.sender, address(this), _amount));\n    msg.sender.transfer(refundAmount);\n  }\n\n  function dispersableEther() public view returns(uint256) {\n    return deposit.mul(wdiv(getBlockNumber().sub(startingBlock), dispersalLength)).div(WAD);\n  }\n\n  function calculateRefund(uint256 _amount) public view returns(uint256) {\n    uint256 numerator = _amount.mul(getRefundableBalance());\n    uint256 denominator = token.totalSupply().sub(token.balanceOf(address(this)));\n    /* emit Log(numerator, denominator);\n    emit Log(wdiv(numerator, denominator), wdiv(numerator, denominator));\n    emit Log(getRefundableBalance(), getRefundableBalance());\n    emit Log(numerator, _amount.mul(getRefundableBalance())); */\n    return wdiv(numerator, denominator).div(WAD);\n  }\n\n  function getRefundableBalance() public view returns(uint256) {\n    return address(this).balance.sub(dispersableEther());\n  }\n\n  function pullEther(uint256 _amount) public onlyOwner {\n    require(dispersableEther().sub(dispersal) >= _amount);\n    dispersal = dispersal.add(_amount);\n    msg.sender.transfer(_amount);\n  }\n\n  function wmul(uint256 _x, uint256 _y) internal pure returns(uint256) {\n    return _x.mul(_y).add(WAD / 2) / WAD;\n  }\n\n  function wdiv(uint256 _x, uint256 _y) internal pure returns(uint256) {\n    return _x.mul(WAD).add(_y / 2) / _y;\n  }\n\n  function getBlockNumber() public view returns(uint256) {\n    return block.number;\n  }\n\n}\n",
  "sourcePath": "/Users/adamdossa/Development/Ethereum/RefundableWallet/contracts/RefundableWallet.sol",
  "compiler": {
    "name": "solc",
    "version": "0.4.23+commit.124ca40d.Emscripten.clang"
  },
  "schemaVersion": "2.0.0",
  "updatedAt": "2018-06-15T22:26:34.151Z"
}