{
  "contractName": "RefundableWalletMock",
  "abi": [
    {
      "constant": true,
      "inputs": [],
      "name": "getRefundableBalance",
      "outputs": [
        {
          "name": "",
          "type": "uint256"
        }
      ],
      "payable": false,
      "stateMutability": "view",
      "type": "function"
    },
    {
      "constant": false,
      "inputs": [
        {
          "name": "_amount",
          "type": "uint256"
        }
      ],
      "name": "refund",
      "outputs": [],
      "payable": false,
      "stateMutability": "nonpayable",
      "type": "function"
    },
    {
      "constant": true,
      "inputs": [],
      "name": "initialTotalSupply",
      "outputs": [
        {
          "name": "",
          "type": "uint256"
        }
      ],
      "payable": false,
      "stateMutability": "view",
      "type": "function"
    },
    {
      "constant": true,
      "inputs": [],
      "name": "tokenRate",
      "outputs": [
        {
          "name": "",
          "type": "uint256"
        }
      ],
      "payable": false,
      "stateMutability": "view",
      "type": "function"
    },
    {
      "constant": false,
      "inputs": [],
      "name": "renounceOwnership",
      "outputs": [],
      "payable": false,
      "stateMutability": "nonpayable",
      "type": "function"
    },
    {
      "constant": true,
      "inputs": [],
      "name": "owner",
      "outputs": [
        {
          "name": "",
          "type": "address"
        }
      ],
      "payable": false,
      "stateMutability": "view",
      "type": "function"
    },
    {
      "constant": false,
      "inputs": [],
      "name": "buy",
      "outputs": [],
      "payable": true,
      "stateMutability": "payable",
      "type": "function"
    },
    {
      "constant": true,
      "inputs": [
        {
          "name": "_amount",
          "type": "uint256"
        }
      ],
      "name": "calculateRefund",
      "outputs": [
        {
          "name": "",
          "type": "uint256"
        }
      ],
      "payable": false,
      "stateMutability": "view",
      "type": "function"
    },
    {
      "constant": false,
      "inputs": [
        {
          "name": "_amount",
          "type": "uint256"
        }
      ],
      "name": "pullEther",
      "outputs": [],
      "payable": false,
      "stateMutability": "nonpayable",
      "type": "function"
    },
    {
      "constant": true,
      "inputs": [],
      "name": "dispersalLength",
      "outputs": [
        {
          "name": "",
          "type": "uint256"
        }
      ],
      "payable": false,
      "stateMutability": "view",
      "type": "function"
    },
    {
      "constant": true,
      "inputs": [],
      "name": "deposit",
      "outputs": [
        {
          "name": "",
          "type": "uint256"
        }
      ],
      "payable": false,
      "stateMutability": "view",
      "type": "function"
    },
    {
      "constant": true,
      "inputs": [],
      "name": "startingBlock",
      "outputs": [
        {
          "name": "",
          "type": "uint256"
        }
      ],
      "payable": false,
      "stateMutability": "view",
      "type": "function"
    },
    {
      "constant": true,
      "inputs": [],
      "name": "dispersal",
      "outputs": [
        {
          "name": "",
          "type": "uint256"
        }
      ],
      "payable": false,
      "stateMutability": "view",
      "type": "function"
    },
    {
      "constant": false,
      "inputs": [
        {
          "name": "_newOwner",
          "type": "address"
        }
      ],
      "name": "transferOwnership",
      "outputs": [],
      "payable": false,
      "stateMutability": "nonpayable",
      "type": "function"
    },
    {
      "constant": true,
      "inputs": [],
      "name": "getDispersableEther",
      "outputs": [
        {
          "name": "",
          "type": "uint256"
        }
      ],
      "payable": false,
      "stateMutability": "view",
      "type": "function"
    },
    {
      "constant": true,
      "inputs": [],
      "name": "token",
      "outputs": [
        {
          "name": "",
          "type": "address"
        }
      ],
      "payable": false,
      "stateMutability": "view",
      "type": "function"
    },
    {
      "inputs": [
        {
          "name": "_token",
          "type": "address"
        },
        {
          "name": "_dispersalLength",
          "type": "uint256"
        }
      ],
      "payable": true,
      "stateMutability": "payable",
      "type": "constructor"
    },
    {
      "anonymous": false,
      "inputs": [
        {
          "indexed": false,
          "name": "numerator",
          "type": "uint256"
        },
        {
          "indexed": false,
          "name": "denominator",
          "type": "uint256"
        }
      ],
      "name": "Log",
      "type": "event"
    },
    {
      "anonymous": false,
      "inputs": [
        {
          "indexed": true,
          "name": "previousOwner",
          "type": "address"
        }
      ],
      "name": "OwnershipRenounced",
      "type": "event"
    },
    {
      "anonymous": false,
      "inputs": [
        {
          "indexed": true,
          "name": "previousOwner",
          "type": "address"
        },
        {
          "indexed": true,
          "name": "newOwner",
          "type": "address"
        }
      ],
      "name": "OwnershipTransferred",
      "type": "event"
    },
    {
      "constant": true,
      "inputs": [],
      "name": "getBlockNumber",
      "outputs": [
        {
          "name": "",
          "type": "uint256"
        }
      ],
      "payable": false,
      "stateMutability": "view",
      "type": "function"
    },
    {
      "constant": false,
      "inputs": [
        {
          "name": "_blockNumber",
          "type": "uint256"
        }
      ],
      "name": "setBlockNumber",
      "outputs": [],
      "payable": false,
      "stateMutability": "nonpayable",
      "type": "function"
    }
  ],
  "bytecode": "0x60806040526040516040806200135a83398101806040528101908080519060200190929190805190602001909291905050508181336000806101000a81548173ffffffffffffffffffffffffffffffffffffffff021916908373ffffffffffffffffffffffffffffffffffffffff16021790555081600160006101000a81548173ffffffffffffffffffffffffffffffffffffffff021916908373ffffffffffffffffffffffffffffffffffffffff160217905550600160009054906101000a900473ffffffffffffffffffffffffffffffffffffffff1673ffffffffffffffffffffffffffffffffffffffff166318160ddd6040518163ffffffff167c0100000000000000000000000000000000000000000000000000000000028152600401602060405180830381600087803b1580156200013b57600080fd5b505af115801562000150573d6000803e3d6000fd5b505050506040513d60208110156200016757600080fd5b8101908080519060200190929190505050600381905550806005819055503073ffffffffffffffffffffffffffffffffffffffff1631600681905550620001bc620001f1640100000000026401000000009004565b600481905550620001e1600354600654620001fb640100000000026401000000009004565b60028190555050505050620002c4565b6000600854905090565b600081620002586002848115156200020f57fe5b046200023b670de0b6b3a7640000876200026b6401000000000262000e52179091906401000000009004565b620002a76401000000000262000f44179091906401000000009004565b8115156200026257fe5b04905092915050565b600080831415620002805760009050620002a1565b81830290508183828115156200029257fe5b041415156200029d57fe5b8090505b92915050565b60008183019050828110151515620002bb57fe5b80905092915050565b61108680620002d46000396000f3006080604052600436106100fc576000357c0100000000000000000000000000000000000000000000000000000000900463ffffffff16806316e92e2e14610101578063278ecde11461012c578063311028af14610159578063317118841461018457806342cbb15c146101af578063715018a6146101da5780638da5cb5b146101f1578063a6f2ae3a14610248578063a8c3c85014610252578063a8c6acda1461027f578063c783dc9e146102c0578063c9948c96146102ed578063d0e30db014610318578063d91c98d314610343578063eeef479d1461036e578063f2fde38b14610399578063f74b468e146103dc578063fc0c546a14610407575b600080fd5b34801561010d57600080fd5b5061011661045e565b6040518082815260200191505060405180910390f35b34801561013857600080fd5b50610157600480360381019080803590602001909291905050506104aa565b005b34801561016557600080fd5b5061016e610641565b6040518082815260200191505060405180910390f35b34801561019057600080fd5b50610199610647565b6040518082815260200191505060405180910390f35b3480156101bb57600080fd5b506101c461064d565b6040518082815260200191505060405180910390f35b3480156101e657600080fd5b506101ef610657565b005b3480156101fd57600080fd5b50610206610759565b604051808273ffffffffffffffffffffffffffffffffffffffff1673ffffffffffffffffffffffffffffffffffffffff16815260200191505060405180910390f35b61025061077e565b005b34801561025e57600080fd5b5061027d600480360381019080803590602001909291905050506109d2565b005b34801561028b57600080fd5b506102aa600480360381019080803590602001909291905050506109dc565b6040518082815260200191505060405180910390f35b3480156102cc57600080fd5b506102eb60048036038101908080359060200190929190505050610c5f565b005b3480156102f957600080fd5b50610302610d49565b6040518082815260200191505060405180910390f35b34801561032457600080fd5b5061032d610d4f565b6040518082815260200191505060405180910390f35b34801561034f57600080fd5b50610358610d55565b6040518082815260200191505060405180910390f35b34801561037a57600080fd5b50610383610d5b565b6040518082815260200191505060405180910390f35b3480156103a557600080fd5b506103da600480360381019080803573ffffffffffffffffffffffffffffffffffffffff169060200190929190505050610d61565b005b3480156103e857600080fd5b506103f1610dc8565b6040518082815260200191505060405180910390f35b34801561041357600080fd5b5061041c610e13565b604051808273ffffffffffffffffffffffffffffffffffffffff1673ffffffffffffffffffffffffffffffffffffffff16815260200191505060405180910390f35b60006104a561047f600754610471610dc8565b610e3990919063ffffffff16565b3073ffffffffffffffffffffffffffffffffffffffff1631610e3990919063ffffffff16565b905090565b60006104b5826109dc565b9050600160009054906101000a900473ffffffffffffffffffffffffffffffffffffffff1673ffffffffffffffffffffffffffffffffffffffff166323b872dd3330856040518463ffffffff167c0100000000000000000000000000000000000000000000000000000000028152600401808473ffffffffffffffffffffffffffffffffffffffff1673ffffffffffffffffffffffffffffffffffffffff1681526020018373ffffffffffffffffffffffffffffffffffffffff1673ffffffffffffffffffffffffffffffffffffffff1681526020018281526020019350505050602060405180830381600087803b1580156105b057600080fd5b505af11580156105c4573d6000803e3d6000fd5b505050506040513d60208110156105da57600080fd5b810190808051906020019092919050505015156105f657600080fd5b3373ffffffffffffffffffffffffffffffffffffffff166108fc829081150290604051600060405180830381858888f1935050505015801561063c573d6000803e3d6000fd5b505050565b60035481565b60025481565b6000600854905090565b6000809054906101000a900473ffffffffffffffffffffffffffffffffffffffff1673ffffffffffffffffffffffffffffffffffffffff163373ffffffffffffffffffffffffffffffffffffffff161415156106b257600080fd5b6000809054906101000a900473ffffffffffffffffffffffffffffffffffffffff1673ffffffffffffffffffffffffffffffffffffffff167ff8df31144d9c2f0f6b59d69b8b98abd5459d07f2742c4df920b25aae33c6482060405160405180910390a260008060006101000a81548173ffffffffffffffffffffffffffffffffffffffff021916908373ffffffffffffffffffffffffffffffffffffffff160217905550565b6000809054906101000a900473ffffffffffffffffffffffffffffffffffffffff1681565b6000803411151561078e57600080fd5b6107bd670de0b6b3a76400006107af60025434610e5290919063ffffffff16565b610e8a90919063ffffffff16565b905080600160009054906101000a900473ffffffffffffffffffffffffffffffffffffffff1673ffffffffffffffffffffffffffffffffffffffff166370a08231306040518263ffffffff167c0100000000000000000000000000000000000000000000000000000000028152600401808273ffffffffffffffffffffffffffffffffffffffff1673ffffffffffffffffffffffffffffffffffffffff168152602001915050602060405180830381600087803b15801561087d57600080fd5b505af1158015610891573d6000803e3d6000fd5b505050506040513d60208110156108a757600080fd5b81019080805190602001909291905050501115156108c457600080fd5b600160009054906101000a900473ffffffffffffffffffffffffffffffffffffffff1673ffffffffffffffffffffffffffffffffffffffff1663a9059cbb33836040518363ffffffff167c0100000000000000000000000000000000000000000000000000000000028152600401808373ffffffffffffffffffffffffffffffffffffffff1673ffffffffffffffffffffffffffffffffffffffff16815260200182815260200192505050602060405180830381600087803b15801561098957600080fd5b505af115801561099d573d6000803e3d6000fd5b505050506040513d60208110156109b357600080fd5b810190808051906020019092919050505015156109cf57600080fd5b50565b8060088190555050565b60008060006109f2846109ed61045e565b610ea0565b9150610bbe600160009054906101000a900473ffffffffffffffffffffffffffffffffffffffff1673ffffffffffffffffffffffffffffffffffffffff166370a08231306040518263ffffffff167c0100000000000000000000000000000000000000000000000000000000028152600401808273ffffffffffffffffffffffffffffffffffffffff1673ffffffffffffffffffffffffffffffffffffffff168152602001915050602060405180830381600087803b158015610ab457600080fd5b505af1158015610ac8573d6000803e3d6000fd5b505050506040513d6020811015610ade57600080fd5b8101908080519060200190929190505050600160009054906101000a900473ffffffffffffffffffffffffffffffffffffffff1673ffffffffffffffffffffffffffffffffffffffff166318160ddd6040518163ffffffff167c0100000000000000000000000000000000000000000000000000000000028152600401602060405180830381600087803b158015610b7557600080fd5b505af1158015610b89573d6000803e3d6000fd5b505050506040513d6020811015610b9f57600080fd5b8101908080519060200190929190505050610e3990919063ffffffff16565b90507fbd0faddf87043dd749c1b9d4dca8a12589b8cb5e2106832111ce23f219b143678282604051808381526020018281526020019250505060405180910390a17fbd0faddf87043dd749c1b9d4dca8a12589b8cb5e2106832111ce23f219b14367610c2861045e565b610c3061045e565b604051808381526020018281526020019250505060405180910390a1610c568282610ef6565b92505050919050565b6000809054906101000a900473ffffffffffffffffffffffffffffffffffffffff1673ffffffffffffffffffffffffffffffffffffffff163373ffffffffffffffffffffffffffffffffffffffff16141515610cba57600080fd5b80610cd7600754610cc9610dc8565b610e3990919063ffffffff16565b10151515610ce457600080fd5b610cf981600754610f4490919063ffffffff16565b6007819055503373ffffffffffffffffffffffffffffffffffffffff166108fc829081150290604051600060405180830381858888f19350505050158015610d45573d6000803e3d6000fd5b5050565b60055481565b60065481565b60045481565b60075481565b6000809054906101000a900473ffffffffffffffffffffffffffffffffffffffff1673ffffffffffffffffffffffffffffffffffffffff163373ffffffffffffffffffffffffffffffffffffffff16141515610dbc57600080fd5b610dc581610f60565b50565b6000610e0e600554610e00610def600454610de161064d565b610e3990919063ffffffff16565b600654610e5290919063ffffffff16565b610e8a90919063ffffffff16565b905090565b600160009054906101000a900473ffffffffffffffffffffffffffffffffffffffff1681565b6000828211151515610e4757fe5b818303905092915050565b600080831415610e655760009050610e84565b8183029050818382811515610e7657fe5b04141515610e8057fe5b8090505b92915050565b60008183811515610e9757fe5b04905092915050565b6000670de0b6b3a7640000610ee46002670de0b6b3a7640000811515610ec257fe5b04610ed68587610e5290919063ffffffff16565b610f4490919063ffffffff16565b811515610eed57fe5b04905092915050565b600081610f32600284811515610f0857fe5b04610f24670de0b6b3a764000087610e5290919063ffffffff16565b610f4490919063ffffffff16565b811515610f3b57fe5b04905092915050565b60008183019050828110151515610f5757fe5b80905092915050565b600073ffffffffffffffffffffffffffffffffffffffff168173ffffffffffffffffffffffffffffffffffffffff1614151515610f9c57600080fd5b8073ffffffffffffffffffffffffffffffffffffffff166000809054906101000a900473ffffffffffffffffffffffffffffffffffffffff1673ffffffffffffffffffffffffffffffffffffffff167f8be0079c531659141344cd1fd0a4f28419497f9722a3daafe3b4186f6b6457e060405160405180910390a3806000806101000a81548173ffffffffffffffffffffffffffffffffffffffff021916908373ffffffffffffffffffffffffffffffffffffffff160217905550505600a165627a7a72305820a09428a2cb700038b168d46d45f404f61c3b9371f59d5b79268aed90a4fa3cf90029",
  "source": "pragma solidity ^0.4.23;\n\nimport '../RefundableWallet.sol';\n\ncontract RefundableWalletMock is RefundableWallet {\n\n  uint256 blockNumber;\n\n  constructor(address _token, uint256 _dispersalLength) public payable\n    RefundableWallet(_token, _dispersalLength)\n  {\n  }\n\n  function getBlockNumber() public view returns(uint256) {\n    return blockNumber;\n  }\n\n  function setBlockNumber(uint256 _blockNumber) public {\n    blockNumber = _blockNumber;\n  }\n\n}\n",
  "sourcePath": "/Users/adamdossa/Development/Ethereum/RefundableWallet/contracts/Mock/RefundableWalletMock.sol",
  "compiler": {
    "name": "solc",
    "version": "0.4.23+commit.124ca40d.Emscripten.clang"
  },
  "schemaVersion": "2.0.0",
  "updatedAt": "2018-06-16T21:41:44.703Z"
}